{
  "address": "0x15031576283DCb1a3dE52af563FdC521206Be8b5",
  "abi": [
    {
      "inputs": [
        {
          "internalType": "contract IERC20",
          "name": "_base",
          "type": "address"
        },
        {
          "internalType": "contract IERC20",
          "name": "_usd",
          "type": "address"
        },
        {
          "internalType": "contract IERC31337",
          "name": "_elite",
          "type": "address"
        },
        {
          "internalType": "contract IERC20",
          "name": "_rooted",
          "type": "address"
        },
        {
          "internalType": "contract IUniswapV2Router02",
          "name": "_uniswapRouter",
          "type": "address"
        },
        {
          "internalType": "contract RootedTransferGate",
          "name": "_gate",
          "type": "address"
        },
        {
          "internalType": "address",
          "name": "_multisig",
          "type": "address"
        }
      ],
      "stateMutability": "nonpayable",
      "type": "constructor"
    },
    {
      "anonymous": false,
      "inputs": [
        {
          "indexed": true,
          "internalType": "address",
          "name": "previousOwner",
          "type": "address"
        },
        {
          "indexed": true,
          "internalType": "address",
          "name": "newOwner",
          "type": "address"
        }
      ],
      "name": "OwnershipTransferred",
      "type": "event"
    },
    {
      "inputs": [
        {
          "internalType": "address",
          "name": "",
          "type": "address"
        }
      ],
      "name": "arbManager",
      "outputs": [
        {
          "internalType": "bool",
          "name": "",
          "type": "bool"
        }
      ],
      "stateMutability": "view",
      "type": "function"
    },
    {
      "inputs": [
        {
          "internalType": "uint256",
          "name": "amount",
          "type": "uint256"
        },
        {
          "internalType": "uint256",
          "name": "minAmountOut",
          "type": "uint256"
        }
      ],
      "name": "balancePriceBase",
      "outputs": [],
      "stateMutability": "nonpayable",
      "type": "function"
    },
    {
      "inputs": [
        {
          "internalType": "uint256",
          "name": "amount",
          "type": "uint256"
        },
        {
          "internalType": "uint256",
          "name": "minAmountOut",
          "type": "uint256"
        }
      ],
      "name": "balancePriceElite",
      "outputs": [],
      "stateMutability": "nonpayable",
      "type": "function"
    },
    {
      "inputs": [],
      "name": "claimOwnership",
      "outputs": [],
      "stateMutability": "nonpayable",
      "type": "function"
    },
    {
      "inputs": [],
      "name": "owner",
      "outputs": [
        {
          "internalType": "address",
          "name": "",
          "type": "address"
        }
      ],
      "stateMutability": "view",
      "type": "function"
    },
    {
      "inputs": [
        {
          "internalType": "contract IERC20",
          "name": "token",
          "type": "address"
        }
      ],
      "name": "recoverTokens",
      "outputs": [],
      "stateMutability": "nonpayable",
      "type": "function"
    },
    {
      "inputs": [
        {
          "internalType": "address",
          "name": "managerAddress",
          "type": "address"
        },
        {
          "internalType": "bool",
          "name": "allow",
          "type": "bool"
        }
      ],
      "name": "setArbManager",
      "outputs": [],
      "stateMutability": "nonpayable",
      "type": "function"
    },
    {
      "inputs": [
        {
          "internalType": "address",
          "name": "newOwner",
          "type": "address"
        }
      ],
      "name": "transferOwnership",
      "outputs": [],
      "stateMutability": "nonpayable",
      "type": "function"
    },
    {
      "inputs": [
        {
          "internalType": "uint256",
          "name": "amount",
          "type": "uint256"
        },
        {
          "internalType": "uint256",
          "name": "minAmountOut",
          "type": "uint256"
        },
        {
          "internalType": "address[]",
          "name": "path",
          "type": "address[]"
        }
      ],
      "name": "unrestrictedSwap",
      "outputs": [],
      "stateMutability": "nonpayable",
      "type": "function"
    },
    {
      "inputs": [
        {
          "internalType": "contract IERC20",
          "name": "token",
          "type": "address"
        },
        {
          "internalType": "uint256",
          "name": "amount",
          "type": "uint256"
        }
      ],
      "name": "withdrawTokensToMultisig",
      "outputs": [],
      "stateMutability": "nonpayable",
      "type": "function"
    }
  ],
  "transactionHash": "0xd6185b85c5de86e470da9ae4c66a1078de7d257d7e4890f8e4e0c3b5919a082c",
  "args": [
    "0x0d500b1d8e8ef31e21c99d1db9a6444d3adf1270",
    "0x2791Bca1f2de4661ED88A30C99A7a9449Aa84174",
    "0xcd0610e3b1Af3d86D4E046648B3BFE412b64c6F1",
    "0xe6a11F125a834E0676F3f8f33eb347D4e1938264",
    "0xa5E0829CaCEd8fFDD4De3c43696c57F7D7A678ff",
    "0xE1a3bAEB559DD858C6DbeC54eA6521dcE38cD986",
    "0x8295aDa05d34E9205986aE4f69Bc0615bdaaa027"
  ],
  "numDeployments": 1,
  "solcInputHash": "68631ae747d7e917982f4819604187de",
  "bytecode": "0x610160604052600080546001600160a01b031916331790553480156200002457600080fd5b50604051620017d0380380620017d0833981810160405260e08110156200004a57600080fd5b50805160208083015160408085015160608087015160808089015160a0808b015160c09b8c01516001600160601b03198c881b8116909d5287871b8d166101005289871b8d1660e05285871b8d1690925282861b8c1690935282851b8b16610120529384901b90991661014052845163095ea7b360e01b81526001600160a01b038086166004830152600019602483015295519899969894979296959194918a169263095ea7b3926044808401938290030181600087803b1580156200010f57600080fd5b505af115801562000124573d6000803e3d6000fd5b505050506040513d60208110156200013b57600080fd5b50506040805163095ea7b360e01b81526001600160a01b038581166004830152600019602483015291519189169163095ea7b3916044808201926020929091908290030181600087803b1580156200019257600080fd5b505af1158015620001a7573d6000803e3d6000fd5b505050506040513d6020811015620001be57600080fd5b50506040805163095ea7b360e01b81526001600160a01b038581166004830152600019602483015291519186169163095ea7b3916044808201926020929091908290030181600087803b1580156200021557600080fd5b505af11580156200022a573d6000803e3d6000fd5b505050506040513d60208110156200024157600080fd5b50506040805163095ea7b360e01b81526001600160a01b038581166004830152600019602483015291519187169163095ea7b3916044808201926020929091908290030181600087803b1580156200029857600080fd5b505af1158015620002ad573d6000803e3d6000fd5b505050506040513d6020811015620002c457600080fd5b50506040805163095ea7b360e01b81526001600160a01b038581166004830152600019602483015291519188169163095ea7b3916044808201926020929091908290030181600087803b1580156200031b57600080fd5b505af115801562000330573d6000803e3d6000fd5b505050506040513d60208110156200034757600080fd5b50505050505050505060805160601c60a05160601c60c05160601c60e05160601c6101005160601c6101205160601c6101405160601c6113c7620004096000398061123c528061128d52508061054352806108c55280610aad5280610c945280610dae52806111be52508061033a52806105a452806106465280610ecf52806110ca5250806102fc5250806102bf52806106e25280610e3352508061037852806106945280610e815250806107305280610b0e5280610f1d52506113c76000f3fe608060405234801561001057600080fd5b506004361061009e5760003560e01c80638da5cb5b116100665780638da5cb5b1461019e5780639898b583146101c2578063ce0c4a46146101e5578063d34d60081461021f578063f2fde38b1461024b5761009e565b806316114acd146100a35780631e08209c146100cb5780634e71e0c8146100ee5780636420b5c4146100f657806389dfb36d14610124575b600080fd5b6100c9600480360360208110156100b957600080fd5b50356001600160a01b0316610271565b005b6100c9600480360360408110156100e157600080fd5b50803590602001356104bd565b6100c9610949565b6100c96004803603604081101561010c57600080fd5b506001600160a01b03813516906020013515156109bc565b6100c96004803603606081101561013a57600080fd5b813591602081013591810190606081016040820135600160201b81111561016057600080fd5b82018360208201111561017257600080fd5b803590602001918460208302840111600160201b8311171561019357600080fd5b509092509050610a33565b6101a6610d19565b604080516001600160a01b039092168252519081900360200190f35b6100c9600480360360408110156101d857600080fd5b5080359060200135610d28565b61020b600480360360208110156101fb57600080fd5b50356001600160a01b0316611203565b604080519115158252519081900360200190f35b6100c96004803603604081101561023557600080fd5b506001600160a01b038135169060200135611218565b6100c96004803603602081101561026157600080fd5b50356001600160a01b0316611323565b6000546001600160a01b031633146102bd576040805162461bcd60e51b815260206004820152600a6024820152694f776e6572206f6e6c7960b01b604482015290519081900360640190fd5b7f00000000000000000000000000000000000000000000000000000000000000006001600160a01b0316816001600160a01b03161415801561033157507f00000000000000000000000000000000000000000000000000000000000000006001600160a01b0316816001600160a01b031614155b801561036f57507f00000000000000000000000000000000000000000000000000000000000000006001600160a01b0316816001600160a01b031614155b80156103ad57507f00000000000000000000000000000000000000000000000000000000000000006001600160a01b0316816001600160a01b031614155b6103b657600080fd5b806001600160a01b031663a9059cbb33836001600160a01b03166370a08231306040518263ffffffff1660e01b815260040180826001600160a01b0316815260200191505060206040518083038186803b15801561041357600080fd5b505afa158015610427573d6000803e3d6000fd5b505050506040513d602081101561043d57600080fd5b5051604080516001600160e01b031960e086901b1681526001600160a01b03909316600484015260248301919091525160448083019260209291908290030181600087803b15801561048e57600080fd5b505af11580156104a2573d6000803e3d6000fd5b505050506040513d60208110156104b857600080fd5b505050565b3360009081526002602052604090205460ff16610516576040805162461bcd60e51b81526020600482015260126024820152712737ba1030b71030b9311026b0b730b3b2b960711b604482015290519081900360640190fd5b81811161052257600080fd5b60408051638327eb8760e01b81526001600482015290516001600160a01b037f00000000000000000000000000000000000000000000000000000000000000001691638327eb8791602480830192600092919082900301818387803b15801561058a57600080fd5b505af115801561059e573d6000803e3d6000fd5b505050507f00000000000000000000000000000000000000000000000000000000000000006001600160a01b031663dd49756e836040518263ffffffff1660e01b815260040180828152602001915050600060405180830381600087803b15801561060857600080fd5b505af115801561061c573d6000803e3d6000fd5b505060408051600380825260808201909252600093509150602082016060803683370190505090507f00000000000000000000000000000000000000000000000000000000000000008160008151811061067257fe5b60200260200101906001600160a01b031690816001600160a01b0316815250507f0000000000000000000000000000000000000000000000000000000000000000816001815181106106c057fe5b60200260200101906001600160a01b031690816001600160a01b0316815250507f00000000000000000000000000000000000000000000000000000000000000008160028151811061070e57fe5b60200260200101906001600160a01b031690816001600160a01b0316815250507f00000000000000000000000000000000000000000000000000000000000000006001600160a01b03166338ed173984848430426040518663ffffffff1660e01b81526004018086815260200185815260200180602001846001600160a01b03168152602001838152602001828103825285818151815260200191508051906020019060200280838360005b838110156107d25781810151838201526020016107ba565b505050509050019650505050505050600060405180830381600087803b1580156107fb57600080fd5b505af115801561080f573d6000803e3d6000fd5b505050506040513d6000823e601f3d908101601f19168201604052602081101561083857600080fd5b8101908080516040519392919084600160201b82111561085757600080fd5b90830190602082018581111561086c57600080fd5b82518660208202830111600160201b8211171561088857600080fd5b82525081516020918201928201910280838360005b838110156108b557818101518382015260200161089d565b50505050905001604052505050507f00000000000000000000000000000000000000000000000000000000000000006001600160a01b0316638327eb8760006040518263ffffffff1660e01b8152600401808215158152602001915050600060405180830381600087803b15801561092c57600080fd5b505af1158015610940573d6000803e3d6000fd5b50505050505050565b6001546001600160a01b0316331461096057600080fd5b600180546001600160a01b03191690556000805460405133926001600160a01b03909216917f8be0079c531659141344cd1fd0a4f28419497f9722a3daafe3b4186f6b6457e091a3600080546001600160a01b03191633179055565b6000546001600160a01b03163314610a08576040805162461bcd60e51b815260206004820152600a6024820152694f776e6572206f6e6c7960b01b604482015290519081900360640190fd5b6001600160a01b03919091166000908152600260205260409020805460ff1916911515919091179055565b3360009081526002602052604090205460ff16610a8c576040805162461bcd60e51b81526020600482015260126024820152712737ba1030b71030b9311026b0b730b3b2b960711b604482015290519081900360640190fd5b60408051638327eb8760e01b81526001600482015290516001600160a01b037f00000000000000000000000000000000000000000000000000000000000000001691638327eb8791602480830192600092919082900301818387803b158015610af457600080fd5b505af1158015610b08573d6000803e3d6000fd5b505050507f00000000000000000000000000000000000000000000000000000000000000006001600160a01b03166338ed17398585858530426040518763ffffffff1660e01b81526004018087815260200186815260200180602001846001600160a01b031681526020018381526020018281038252868682818152602001925060200280828437600081840152601f19601f820116905080830192505050975050505050505050600060405180830381600087803b158015610bca57600080fd5b505af1158015610bde573d6000803e3d6000fd5b505050506040513d6000823e601f3d908101601f191682016040526020811015610c0757600080fd5b8101908080516040519392919084600160201b821115610c2657600080fd5b908301906020820185811115610c3b57600080fd5b82518660208202830111600160201b82111715610c5757600080fd5b82525081516020918201928201910280838360005b83811015610c84578181015183820152602001610c6c565b50505050905001604052505050507f00000000000000000000000000000000000000000000000000000000000000006001600160a01b0316638327eb8760006040518263ffffffff1660e01b8152600401808215158152602001915050600060405180830381600087803b158015610cfb57600080fd5b505af1158015610d0f573d6000803e3d6000fd5b5050505050505050565b6000546001600160a01b031681565b3360009081526002602052604090205460ff16610d81576040805162461bcd60e51b81526020600482015260126024820152712737ba1030b71030b9311026b0b730b3b2b960711b604482015290519081900360640190fd5b818111610d8d57600080fd5b60408051638327eb8760e01b81526001600482015290516001600160a01b037f00000000000000000000000000000000000000000000000000000000000000001691638327eb8791602480830192600092919082900301818387803b158015610df557600080fd5b505af1158015610e09573d6000803e3d6000fd5b505060408051600380825260808201909252600093509150602082016060803683370190505090507f000000000000000000000000000000000000000000000000000000000000000081600081518110610e5f57fe5b60200260200101906001600160a01b031690816001600160a01b0316815250507f000000000000000000000000000000000000000000000000000000000000000081600181518110610ead57fe5b60200260200101906001600160a01b031690816001600160a01b0316815250507f000000000000000000000000000000000000000000000000000000000000000081600281518110610efb57fe5b60200260200101906001600160a01b031690816001600160a01b0316815250507f00000000000000000000000000000000000000000000000000000000000000006001600160a01b03166338ed173984848430426040518663ffffffff1660e01b81526004018086815260200185815260200180602001846001600160a01b03168152602001838152602001828103825285818151815260200191508051906020019060200280838360005b83811015610fbf578181015183820152602001610fa7565b505050509050019650505050505050600060405180830381600087803b158015610fe857600080fd5b505af1158015610ffc573d6000803e3d6000fd5b505050506040513d6000823e601f3d908101601f19168201604052602081101561102557600080fd5b8101908080516040519392919084600160201b82111561104457600080fd5b90830190602082018581111561105957600080fd5b82518660208202830111600160201b8211171561107557600080fd5b82525081516020918201928201910280838360005b838110156110a257818101518382015260200161108a565b505050509190910160408181526370a0823160e01b8252306004830152516001600160a01b037f000000000000000000000000000000000000000000000000000000000000000016965063315a095d95508694506370a08231935060248083019350602092829003018186803b15801561111b57600080fd5b505afa15801561112f573d6000803e3d6000fd5b505050506040513d602081101561114557600080fd5b5051604080516001600160e01b031960e085901b168152600481019290925251602480830192600092919082900301818387803b15801561118557600080fd5b505af1158015611199573d6000803e3d6000fd5b505060408051638327eb8760e01b815260006004820181905291516001600160a01b037f0000000000000000000000000000000000000000000000000000000000000000169450638327eb8793506024808301939282900301818387803b15801561092c57600080fd5b60026020526000908152604090205460ff1681565b3360009081526002602052604090205460ff168061125e5750336001600160a01b037f000000000000000000000000000000000000000000000000000000000000000016145b8061127357506000546001600160a01b031633145b61127c57600080fd5b816001600160a01b031663a9059cbb7f0000000000000000000000000000000000000000000000000000000000000000836040518363ffffffff1660e01b815260040180836001600160a01b0316815260200182815260200192505050602060405180830381600087803b1580156112f357600080fd5b505af1158015611307573d6000803e3d6000fd5b505050506040513d602081101561131d57600080fd5b50505050565b6000546001600160a01b0316331461136f576040805162461bcd60e51b815260206004820152600a6024820152694f776e6572206f6e6c7960b01b604482015290519081900360640190fd5b600180546001600160a01b0319166001600160a01b039290921691909117905556fea26469706673582212200d3f61cc4a7b9aab74e772a89675af83ea9208970aa3d9d27f00db90071b263764736f6c63430007060033",
  "devdoc": {
    "kind": "dev",
    "methods": {},
    "version": 1
  },
  "userdoc": {
    "kind": "user",
    "methods": {},
    "version": 1
  },
  "storageLayout": {
    "storage": [
      {
        "astId": 7200,
        "contract": "contracts/Arb.sol:Arb",
        "label": "owner",
        "offset": 0,
        "slot": "0",
        "type": "t_address"
      },
      {
        "astId": 7202,
        "contract": "contracts/Arb.sol:Arb",
        "label": "pendingOwner",
        "offset": 0,
        "slot": "1",
        "type": "t_address"
      },
      {
        "astId": 329,
        "contract": "contracts/Arb.sol:Arb",
        "label": "arbManager",
        "offset": 0,
        "slot": "2",
        "type": "t_mapping(t_address,t_bool)"
      }
    ],
    "types": {
      "t_address": {
        "encoding": "inplace",
        "label": "address",
        "numberOfBytes": "20"
      },
      "t_bool": {
        "encoding": "inplace",
        "label": "bool",
        "numberOfBytes": "1"
      },
      "t_mapping(t_address,t_bool)": {
        "encoding": "mapping",
        "key": "t_address",
        "label": "mapping(address => bool)",
        "numberOfBytes": "32",
        "value": "t_bool"
      }
    }
  }
}