{
  "address": "0xE1a3bAEB559DD858C6DbeC54eA6521dcE38cD986",
  "abi": [
    {
      "inputs": [
        {
          "internalType": "contract LiquidityLockedERC20",
          "name": "_rootedToken",
          "type": "address"
        },
        {
          "internalType": "address",
          "name": "_feeSplitter",
          "type": "address"
        }
      ],
      "stateMutability": "nonpayable",
      "type": "constructor"
    },
    {
      "anonymous": false,
      "inputs": [
        {
          "indexed": true,
          "internalType": "address",
          "name": "previousOwner",
          "type": "address"
        },
        {
          "indexed": true,
          "internalType": "address",
          "name": "newOwner",
          "type": "address"
        }
      ],
      "name": "OwnershipTransferred",
      "type": "event"
    },
    {
      "inputs": [],
      "name": "claimOwnership",
      "outputs": [],
      "stateMutability": "nonpayable",
      "type": "function"
    },
    {
      "inputs": [],
      "name": "dumpTaxDurationInSeconds",
      "outputs": [
        {
          "internalType": "uint256",
          "name": "",
          "type": "uint256"
        }
      ],
      "stateMutability": "view",
      "type": "function"
    },
    {
      "inputs": [],
      "name": "dumpTaxEndTimestamp",
      "outputs": [
        {
          "internalType": "uint256",
          "name": "",
          "type": "uint256"
        }
      ],
      "stateMutability": "view",
      "type": "function"
    },
    {
      "inputs": [],
      "name": "dumpTaxStartRate",
      "outputs": [
        {
          "internalType": "uint16",
          "name": "",
          "type": "uint16"
        }
      ],
      "stateMutability": "view",
      "type": "function"
    },
    {
      "inputs": [
        {
          "internalType": "address",
          "name": "",
          "type": "address"
        }
      ],
      "name": "feeControllers",
      "outputs": [
        {
          "internalType": "bool",
          "name": "",
          "type": "bool"
        }
      ],
      "stateMutability": "view",
      "type": "function"
    },
    {
      "inputs": [],
      "name": "feeSplitter",
      "outputs": [
        {
          "internalType": "address",
          "name": "",
          "type": "address"
        }
      ],
      "stateMutability": "view",
      "type": "function"
    },
    {
      "inputs": [],
      "name": "feesRate",
      "outputs": [
        {
          "internalType": "uint16",
          "name": "",
          "type": "uint16"
        }
      ],
      "stateMutability": "view",
      "type": "function"
    },
    {
      "inputs": [
        {
          "internalType": "address",
          "name": "",
          "type": "address"
        }
      ],
      "name": "freeParticipants",
      "outputs": [
        {
          "internalType": "bool",
          "name": "",
          "type": "bool"
        }
      ],
      "stateMutability": "view",
      "type": "function"
    },
    {
      "inputs": [
        {
          "internalType": "address",
          "name": "",
          "type": "address"
        },
        {
          "internalType": "address",
          "name": "from",
          "type": "address"
        },
        {
          "internalType": "address",
          "name": "to",
          "type": "address"
        },
        {
          "internalType": "uint256",
          "name": "amount",
          "type": "uint256"
        }
      ],
      "name": "handleTransfer",
      "outputs": [
        {
          "internalType": "uint256",
          "name": "",
          "type": "uint256"
        }
      ],
      "stateMutability": "nonpayable",
      "type": "function"
    },
    {
      "inputs": [
        {
          "internalType": "address",
          "name": "",
          "type": "address"
        }
      ],
      "name": "liquidityControllers",
      "outputs": [
        {
          "internalType": "bool",
          "name": "",
          "type": "bool"
        }
      ],
      "stateMutability": "view",
      "type": "function"
    },
    {
      "inputs": [],
      "name": "liquidityIncreaseRate",
      "outputs": [
        {
          "internalType": "uint16",
          "name": "",
          "type": "uint16"
        }
      ],
      "stateMutability": "view",
      "type": "function"
    },
    {
      "inputs": [],
      "name": "owner",
      "outputs": [
        {
          "internalType": "address",
          "name": "",
          "type": "address"
        }
      ],
      "stateMutability": "view",
      "type": "function"
    },
    {
      "inputs": [
        {
          "internalType": "contract IERC20",
          "name": "token",
          "type": "address"
        }
      ],
      "name": "recoverTokens",
      "outputs": [],
      "stateMutability": "nonpayable",
      "type": "function"
    },
    {
      "inputs": [
        {
          "internalType": "uint16",
          "name": "startTaxRate",
          "type": "uint16"
        },
        {
          "internalType": "uint256",
          "name": "durationInSeconds",
          "type": "uint256"
        }
      ],
      "name": "setDumpTax",
      "outputs": [],
      "stateMutability": "nonpayable",
      "type": "function"
    },
    {
      "inputs": [
        {
          "internalType": "address",
          "name": "feeController",
          "type": "address"
        },
        {
          "internalType": "bool",
          "name": "allow",
          "type": "bool"
        }
      ],
      "name": "setFeeControllers",
      "outputs": [],
      "stateMutability": "nonpayable",
      "type": "function"
    },
    {
      "inputs": [
        {
          "internalType": "address",
          "name": "_feeSplitter",
          "type": "address"
        }
      ],
      "name": "setFeeSplitter",
      "outputs": [],
      "stateMutability": "nonpayable",
      "type": "function"
    },
    {
      "inputs": [
        {
          "internalType": "uint16",
          "name": "_feesRate",
          "type": "uint16"
        }
      ],
      "name": "setFees",
      "outputs": [],
      "stateMutability": "nonpayable",
      "type": "function"
    },
    {
      "inputs": [
        {
          "internalType": "address",
          "name": "participant",
          "type": "address"
        },
        {
          "internalType": "bool",
          "name": "free",
          "type": "bool"
        }
      ],
      "name": "setFreeParticipant",
      "outputs": [],
      "stateMutability": "nonpayable",
      "type": "function"
    },
    {
      "inputs": [
        {
          "internalType": "uint16",
          "name": "_liquidityIncreaseRate",
          "type": "uint16"
        }
      ],
      "name": "setLiquidityIncreaseRate",
      "outputs": [],
      "stateMutability": "nonpayable",
      "type": "function"
    },
    {
      "inputs": [
        {
          "internalType": "bool",
          "name": "_unrestricted",
          "type": "bool"
        }
      ],
      "name": "setUnrestricted",
      "outputs": [],
      "stateMutability": "nonpayable",
      "type": "function"
    },
    {
      "inputs": [],
      "name": "transferInProgress",
      "outputs": [
        {
          "internalType": "bool",
          "name": "",
          "type": "bool"
        }
      ],
      "stateMutability": "view",
      "type": "function"
    },
    {
      "inputs": [
        {
          "internalType": "address",
          "name": "newOwner",
          "type": "address"
        }
      ],
      "name": "transferOwnership",
      "outputs": [],
      "stateMutability": "nonpayable",
      "type": "function"
    },
    {
      "inputs": [],
      "name": "unrestricted",
      "outputs": [
        {
          "internalType": "bool",
          "name": "",
          "type": "bool"
        }
      ],
      "stateMutability": "view",
      "type": "function"
    }
  ],
  "transactionHash": "0xb6ce403c73705f3da32ae42899da1ca9580f967b61435fb553dd5518cbfd2fcd",
  "args": [
    "0xe6a11F125a834E0676F3f8f33eb347D4e1938264",
    "0x96E5b9e7bc0eC533385e18572b9155f9656ad735"
  ],
  "numDeployments": 1,
  "solcInputHash": "68631ae747d7e917982f4819604187de",
  "bytecode": "0x60a0604052600080546001600160a01b0319163317905534801561002257600080fd5b5060405161173b38038061173b8339818101604052604081101561004557600080fd5b508051602090910151606082901b6001600160601b031916608052600580546001600160a01b0319166001600160a01b039283161790551661168e6100ad6000398061080e52806108ed52806109d85280610af05280610bd3528061112e525061168e6000f3fe608060405234801561001057600080fd5b506004361061014d5760003560e01c80636052970c116100c3578063a61515251161007c578063a615152514610345578063b17fb9d614610366578063b40e180b1461038c578063ca1123c214610394578063e30b472f146103b5578063f2fde38b146103db5761014d565b80636052970c146102885780638327eb87146102ac5780638da5cb5b146102cb57806395c47d06146102d35780639aa3d4bd1461030f5780639c8c247c146103175761014d565b80631dbb8db3116101155780631dbb8db3146101e4578063240a53d41461020a57806326278f86146102305780633e2a196e14610238578063467ee03c146102665780634e71e0c8146102805761014d565b80630423142914610152578063127043c31461017157806313b0dc981461017957806316114acd146101a25780631d6f7d50146101c8575b600080fd5b61015a610401565b6040805161ffff9092168252519081900360200190f35b61015a610412565b6101a06004803603604081101561018f57600080fd5b5061ffff8135169060200135610423565b005b6101a0600480360360208110156101b857600080fd5b50356001600160a01b031661050e565b6101d06105fd565b604080519115158252519081900360200190f35b6101d0600480360360208110156101fa57600080fd5b50356001600160a01b0316610606565b6101d06004803603602081101561022057600080fd5b50356001600160a01b031661061b565b6101d0610630565b6101a06004803603604081101561024e57600080fd5b506001600160a01b0381351690602001351515610640565b61026e6106b7565b60408051918252519081900360200190f35b6101a06106bd565b610290610730565b604080516001600160a01b039092168252519081900360200190f35b6101a0600480360360208110156102c257600080fd5b5035151561073f565b6102906107d6565b61026e600480360360808110156102e957600080fd5b506001600160a01b038135811691602081013582169160408201351690606001356107e5565b61026e610cad565b6101a06004803603604081101561032d57600080fd5b506001600160a01b0381351690602001351515610cb3565b6101a06004803603602081101561035b57600080fd5b503561ffff16610d41565b6101a06004803603602081101561037c57600080fd5b50356001600160a01b0316610df4565b61015a610e62565b6101a0600480360360208110156103aa57600080fd5b503561ffff16610e73565b6101d0600480360360208110156103cb57600080fd5b50356001600160a01b0316610f53565b6101a0600480360360208110156103f157600080fd5b50356001600160a01b0316610f68565b600554600160b01b900461ffff1681565b600554600160a01b900461ffff1681565b3360009081526003602052604090205460ff168061044b57506000546001600160a01b031633145b61049c576040805162461bcd60e51b815260206004820152601e60248201527f4e6f7420616e206f776e6572206f722066656520636f6e74726f6c6c65720000604482015290519081900360640190fd5b6127108261ffff1611156104e15760405162461bcd60e51b81526004018080602001828103825260308152602001806115aa6030913960400191505060405180910390fd5b6005805461ffff909316600160c01b0261ffff60c01b199093169290921790915560068190554201600755565b6000546001600160a01b0316331461055a576040805162461bcd60e51b815260206004820152600a6024820152694f776e6572206f6e6c7960b01b604482015290519081900360640190fd5b61056381610fd6565b61056c57600080fd5b6105fa33826001600160a01b03166370a08231306040518263ffffffff1660e01b815260040180826001600160a01b0316815260200191505060206040518083038186803b1580156105bd57600080fd5b505afa1580156105d1573d6000803e3d6000fd5b505050506040513d60208110156105e757600080fd5b50516001600160a01b0384169190610fe8565b50565b60085460ff1681565b60046020526000908152604090205460ff1681565b60026020526000908152604090205460ff1681565b600154600160a01b900460ff1681565b6000546001600160a01b0316331461068c576040805162461bcd60e51b815260206004820152600a6024820152694f776e6572206f6e6c7960b01b604482015290519081900360640190fd5b6001600160a01b03919091166000908152600360205260409020805460ff1916911515919091179055565b60075481565b6001546001600160a01b031633146106d457600080fd5b600180546001600160a01b03191690556000805460405133926001600160a01b03909216917f8be0079c531659141344cd1fd0a4f28419497f9722a3daafe3b4186f6b6457e091a3600080546001600160a01b03191633179055565b6005546001600160a01b031681565b3360009081526003602052604090205460ff168061076757506000546001600160a01b031633145b6107b8576040805162461bcd60e51b815260206004820152601e60248201527f4e6f7420616e20756e7265737472696374656420636f6e74726f6c6c65720000604482015290519081900360640190fd5b60018054911515600160a01b0260ff60a01b19909216919091179055565b6000546001600160a01b031681565b60085460009060ff16156107fb57506000610ca5565b600061080561103f565b905060008590507f00000000000000000000000000000000000000000000000000000000000000006001600160a01b031663ab27c58b826040518263ffffffff1660e01b815260040180826001600160a01b0316815260200191505060206040518083038186803b15801561087957600080fd5b505afa15801561088d573d6000803e3d6000fd5b505050506040513d60208110156108a357600080fd5b505180156108bd5750600554600160b01b900461ffff1615155b15610c37576040805163224889f960e11b81526001600160a01b03838116600483015260006024830181905292517f00000000000000000000000000000000000000000000000000000000000000009091169263449113f2926044808201939182900301818387803b15801561093257600080fd5b505af1158015610946573d6000803e3d6000fd5b505050506000610955826110c2565b9050600080836001600160a01b0316630902f1ac6040518163ffffffff1660e01b815260040160606040518083038186803b15801561099357600080fd5b505afa1580156109a7573d6000803e3d6000fd5b505050506040513d60608110156109bd57600080fd5b50805160209091015190925090506001600160a01b038084167f000000000000000000000000000000000000000000000000000000000000000090911611610a06578082610a09565b81815b80925081935050506000836001600160a01b03166370a08231866040518263ffffffff1660e01b815260040180826001600160a01b0316815260200191505060206040518083038186803b158015610a6057600080fd5b505afa158015610a74573d6000803e3d6000fd5b505050506040513d6020811015610a8a57600080fd5b505190506001600160701b0383168111610aa357600080fd5b6000610abe6001600160701b038086168085039186166111d3565b9050612710878202048103808a1115610ad657600080fd5b6008805460ff191660011790556005546001600160a01b037f0000000000000000000000000000000000000000000000000000000000000000169063a9059cbb908e906127109061ffff600160b01b909104168e02046040518363ffffffff1660e01b815260040180836001600160a01b0316815260200182815260200192505050602060405180830381600087803b158015610b7257600080fd5b505af1158015610b86573d6000803e3d6000fd5b505050506040513d6020811015610b9c57600080fd5b50506008805460ff191690556040805163224889f960e11b81526001600160a01b03898116600483015260006024830181905292517f00000000000000000000000000000000000000000000000000000000000000009091169263449113f2926044808201939182900301818387803b158015610c1857600080fd5b505af1158015610c2c573d6000803e3d6000fd5b505050505050505050505b600154600160a01b900460ff1680610c6757506001600160a01b03861660009081526004602052604090205460ff165b80610c8a57506001600160a01b03851660009081526004602052604090205460ff165b15610c9a57600092505050610ca5565b506127109083020490505b949350505050565b60065481565b6000546001600160a01b0316331480610cdb57503360009081526003602052604090205460ff165b610d165760405162461bcd60e51b815260040180806020018281038252602b81526020018061162e602b913960400191505060405180910390fd5b6001600160a01b03919091166000908152600460205260409020805460ff1916911515919091179055565b6000546001600160a01b03163314610d8d576040805162461bcd60e51b815260206004820152600a6024820152694f776e6572206f6e6c7960b01b604482015290519081900360640190fd5b6126ac8161ffff161115610dd25760405162461bcd60e51b815260040180806020018281038252602a815260200180611604602a913960400191505060405180910390fd5b6005805461ffff909216600160b01b0261ffff60b01b19909216919091179055565b6000546001600160a01b03163314610e40576040805162461bcd60e51b815260206004820152600a6024820152694f776e6572206f6e6c7960b01b604482015290519081900360640190fd5b600580546001600160a01b0319166001600160a01b0392909216919091179055565b600554600160c01b900461ffff1681565b3360009081526003602052604090205460ff1680610e9b57506000546001600160a01b031633145b610eec576040805162461bcd60e51b815260206004820152601e60248201527f4e6f7420616e206f776e6572206f722066656520636f6e74726f6c6c65720000604482015290519081900360640190fd5b6127108161ffff161115610f315760405162461bcd60e51b815260040180806020018281038252602b81526020018061155e602b913960400191505060405180910390fd5b6005805461ffff909216600160a01b0261ffff60a01b19909216919091179055565b60036020526000908152604090205460ff1681565b6000546001600160a01b03163314610fb4576040805162461bcd60e51b815260206004820152600a6024820152694f776e6572206f6e6c7960b01b604482015290519081900360640190fd5b600180546001600160a01b0319166001600160a01b0392909216919091179055565b6001600160a01b038116301415919050565b604080516001600160a01b038416602482015260448082018490528251808303909101815260649091019091526020810180516001600160e01b031663a9059cbb60e01b17905261103a908490611221565b505050565b60008060075442101561109257670de0b6b3a76400006006544260075403600560189054906101000a900461ffff1661ffff1602670de0b6b3a7640000028161108457fe5b048161108c57fe5b04611095565b60005b600554909150600160a01b900461ffff16810161271081116110b757806110bb565b6127105b9250505090565b600080826001600160a01b0316630dfe16816040518163ffffffff1660e01b815260040160206040518083038186803b1580156110fe57600080fd5b505afa158015611112573d6000803e3d6000fd5b505050506040513d602081101561112857600080fd5b505190507f00000000000000000000000000000000000000000000000000000000000000006001600160a01b039081169082161461116657806111cc565b826001600160a01b031663d21220a76040518163ffffffff1660e01b815260040160206040518083038186803b15801561119f57600080fd5b505afa1580156111b3573d6000803e3d6000fd5b505050506040513d60208110156111c957600080fd5b50515b9392505050565b6000806111e2856103e56112d2565b905060006111f082856112d2565b9050600061120a83611204886103e86112d2565b90611334565b905080828161121557fe5b04979650505050505050565b6000611276826040518060400160405280602081526020017f5361666545524332303a206c6f772d6c6576656c2063616c6c206661696c6564815250856001600160a01b031661138e9092919063ffffffff16565b80519091501561103a5780806020019051602081101561129557600080fd5b505161103a5760405162461bcd60e51b815260040180806020018281038252602a8152602001806115da602a913960400191505060405180910390fd5b6000826112e15750600061132e565b828202828482816112ee57fe5b041461132b5760405162461bcd60e51b81526004018080602001828103825260218152602001806115896021913960400191505060405180910390fd5b90505b92915050565b60008282018381101561132b576040805162461bcd60e51b815260206004820152601b60248201527f536166654d6174683a206164646974696f6e206f766572666c6f770000000000604482015290519081900360640190fd5b6060610ca58484600085856113a2856114b3565b6113f3576040805162461bcd60e51b815260206004820152601d60248201527f416464726573733a2063616c6c20746f206e6f6e2d636f6e7472616374000000604482015290519081900360640190fd5b600080866001600160a01b031685876040518082805190602001908083835b602083106114315780518252601f199092019160209182019101611412565b6001836020036101000a03801982511681845116808217855250505050505090500191505060006040518083038185875af1925050503d8060008114611493576040519150601f19603f3d011682016040523d82523d6000602084013e611498565b606091505b50915091506114a88282866114b9565b979650505050505050565b3b151590565b606083156114c85750816111cc565b8251156114d85782518084602001fd5b8160405162461bcd60e51b81526004018080602001828103825283818151815260200191508051906020019080838360005b8381101561152257818101518382015260200161150a565b50505050905090810190601f16801561154f5780820380516001836020036101000a031916815260200191505b509250505060405180910390fdfe4665652072617465206d757374206265206c657373207468616e206f7220657175616c20746f2031303025536166654d6174683a206d756c7469706c69636174696f6e206f766572666c6f7744756d70207461782072617465206d757374206265206c657373207468616e206f7220657175616c20746f20313030255361666545524332303a204552433230206f7065726174696f6e20646964206e6f7420737563636565644665652072617465206d757374206265206c657373207468616e206f7220657175616c20746f203939254e6f7420616e206f776e6572206f722066726565207061727469636970616e7420636f6e74726f6c6c6572a264697066735822122028022ade5458fa9967887a2e6bd96cbc229b80c026767595a3e52cb11643599764736f6c63430007060033",
  "devdoc": {
    "kind": "dev",
    "methods": {},
    "version": 1
  },
  "userdoc": {
    "kind": "user",
    "methods": {},
    "version": 1
  },
  "storageLayout": {
    "storage": [
      {
        "astId": 7200,
        "contract": "contracts/RootedTransferGateV2.sol:RootedTransferGateV2",
        "label": "owner",
        "offset": 0,
        "slot": "0",
        "type": "t_address"
      },
      {
        "astId": 7202,
        "contract": "contracts/RootedTransferGateV2.sol:RootedTransferGateV2",
        "label": "pendingOwner",
        "offset": 0,
        "slot": "1",
        "type": "t_address"
      },
      {
        "astId": 7767,
        "contract": "contracts/RootedTransferGateV2.sol:RootedTransferGateV2",
        "label": "unrestricted",
        "offset": 20,
        "slot": "1",
        "type": "t_bool"
      },
      {
        "astId": 7771,
        "contract": "contracts/RootedTransferGateV2.sol:RootedTransferGateV2",
        "label": "liquidityControllers",
        "offset": 0,
        "slot": "2",
        "type": "t_mapping(t_address,t_bool)"
      },
      {
        "astId": 7775,
        "contract": "contracts/RootedTransferGateV2.sol:RootedTransferGateV2",
        "label": "feeControllers",
        "offset": 0,
        "slot": "3",
        "type": "t_mapping(t_address,t_bool)"
      },
      {
        "astId": 7779,
        "contract": "contracts/RootedTransferGateV2.sol:RootedTransferGateV2",
        "label": "freeParticipants",
        "offset": 0,
        "slot": "4",
        "type": "t_mapping(t_address,t_bool)"
      },
      {
        "astId": 7782,
        "contract": "contracts/RootedTransferGateV2.sol:RootedTransferGateV2",
        "label": "feeSplitter",
        "offset": 0,
        "slot": "5",
        "type": "t_address"
      },
      {
        "astId": 7784,
        "contract": "contracts/RootedTransferGateV2.sol:RootedTransferGateV2",
        "label": "feesRate",
        "offset": 20,
        "slot": "5",
        "type": "t_uint16"
      },
      {
        "astId": 7786,
        "contract": "contracts/RootedTransferGateV2.sol:RootedTransferGateV2",
        "label": "liquidityIncreaseRate",
        "offset": 22,
        "slot": "5",
        "type": "t_uint16"
      },
      {
        "astId": 7788,
        "contract": "contracts/RootedTransferGateV2.sol:RootedTransferGateV2",
        "label": "dumpTaxStartRate",
        "offset": 24,
        "slot": "5",
        "type": "t_uint16"
      },
      {
        "astId": 7790,
        "contract": "contracts/RootedTransferGateV2.sol:RootedTransferGateV2",
        "label": "dumpTaxDurationInSeconds",
        "offset": 0,
        "slot": "6",
        "type": "t_uint256"
      },
      {
        "astId": 7792,
        "contract": "contracts/RootedTransferGateV2.sol:RootedTransferGateV2",
        "label": "dumpTaxEndTimestamp",
        "offset": 0,
        "slot": "7",
        "type": "t_uint256"
      },
      {
        "astId": 7794,
        "contract": "contracts/RootedTransferGateV2.sol:RootedTransferGateV2",
        "label": "transferInProgress",
        "offset": 0,
        "slot": "8",
        "type": "t_bool"
      }
    ],
    "types": {
      "t_address": {
        "encoding": "inplace",
        "label": "address",
        "numberOfBytes": "20"
      },
      "t_bool": {
        "encoding": "inplace",
        "label": "bool",
        "numberOfBytes": "1"
      },
      "t_mapping(t_address,t_bool)": {
        "encoding": "mapping",
        "key": "t_address",
        "label": "mapping(address => bool)",
        "numberOfBytes": "32",
        "value": "t_bool"
      },
      "t_uint16": {
        "encoding": "inplace",
        "label": "uint16",
        "numberOfBytes": "2"
      },
      "t_uint256": {
        "encoding": "inplace",
        "label": "uint256",
        "numberOfBytes": "32"
      }
    }
  }
}