{
  "address": "0x155C027cAA72235F6d1429D1ee2C8Ce99187394c",
  "abi": [
    {
      "inputs": [
        {
          "internalType": "contract LiquidityLockedERC20",
          "name": "_rootedToken",
          "type": "address"
        },
        {
          "internalType": "address",
          "name": "_feeSplitter",
          "type": "address"
        },
        {
          "internalType": "contract IUniswapV2Pair",
          "name": "_basePair",
          "type": "address"
        },
        {
          "internalType": "contract IUniswapV2Pair",
          "name": "_elitePair",
          "type": "address"
        },
        {
          "internalType": "contract IUniswapV2Pair",
          "name": "_usdPair",
          "type": "address"
        }
      ],
      "stateMutability": "nonpayable",
      "type": "constructor"
    },
    {
      "anonymous": false,
      "inputs": [
        {
          "indexed": true,
          "internalType": "address",
          "name": "previousOwner",
          "type": "address"
        },
        {
          "indexed": true,
          "internalType": "address",
          "name": "newOwner",
          "type": "address"
        }
      ],
      "name": "OwnershipTransferred",
      "type": "event"
    },
    {
      "inputs": [],
      "name": "claimOwnership",
      "outputs": [],
      "stateMutability": "nonpayable",
      "type": "function"
    },
    {
      "inputs": [
        {
          "internalType": "address",
          "name": "",
          "type": "address"
        }
      ],
      "name": "controllers",
      "outputs": [
        {
          "internalType": "bool",
          "name": "",
          "type": "bool"
        }
      ],
      "stateMutability": "view",
      "type": "function"
    },
    {
      "inputs": [],
      "name": "feeSplitter",
      "outputs": [
        {
          "internalType": "address",
          "name": "",
          "type": "address"
        }
      ],
      "stateMutability": "view",
      "type": "function"
    },
    {
      "inputs": [],
      "name": "feesRate",
      "outputs": [
        {
          "internalType": "uint16",
          "name": "",
          "type": "uint16"
        }
      ],
      "stateMutability": "view",
      "type": "function"
    },
    {
      "inputs": [
        {
          "internalType": "address",
          "name": "",
          "type": "address"
        }
      ],
      "name": "freeParticipants",
      "outputs": [
        {
          "internalType": "bool",
          "name": "",
          "type": "bool"
        }
      ],
      "stateMutability": "view",
      "type": "function"
    },
    {
      "inputs": [
        {
          "internalType": "address",
          "name": "",
          "type": "address"
        },
        {
          "internalType": "address",
          "name": "from",
          "type": "address"
        },
        {
          "internalType": "address",
          "name": "to",
          "type": "address"
        },
        {
          "internalType": "uint256",
          "name": "amount",
          "type": "uint256"
        }
      ],
      "name": "handleTransfer",
      "outputs": [
        {
          "internalType": "uint256",
          "name": "",
          "type": "uint256"
        }
      ],
      "stateMutability": "nonpayable",
      "type": "function"
    },
    {
      "inputs": [],
      "name": "owner",
      "outputs": [
        {
          "internalType": "address",
          "name": "",
          "type": "address"
        }
      ],
      "stateMutability": "view",
      "type": "function"
    },
    {
      "inputs": [
        {
          "internalType": "contract IERC20",
          "name": "token",
          "type": "address"
        }
      ],
      "name": "recoverTokens",
      "outputs": [],
      "stateMutability": "nonpayable",
      "type": "function"
    },
    {
      "inputs": [
        {
          "internalType": "address",
          "name": "controller",
          "type": "address"
        },
        {
          "internalType": "bool",
          "name": "allow",
          "type": "bool"
        }
      ],
      "name": "setControllers",
      "outputs": [],
      "stateMutability": "nonpayable",
      "type": "function"
    },
    {
      "inputs": [
        {
          "internalType": "address",
          "name": "_feeSplitter",
          "type": "address"
        }
      ],
      "name": "setFeeSplitter",
      "outputs": [],
      "stateMutability": "nonpayable",
      "type": "function"
    },
    {
      "inputs": [
        {
          "internalType": "uint16",
          "name": "_feesRate",
          "type": "uint16"
        }
      ],
      "name": "setFees",
      "outputs": [],
      "stateMutability": "nonpayable",
      "type": "function"
    },
    {
      "inputs": [
        {
          "internalType": "address",
          "name": "participant",
          "type": "address"
        },
        {
          "internalType": "bool",
          "name": "free",
          "type": "bool"
        }
      ],
      "name": "setFreeParticipant",
      "outputs": [],
      "stateMutability": "nonpayable",
      "type": "function"
    },
    {
      "inputs": [
        {
          "internalType": "bool",
          "name": "_unrestricted",
          "type": "bool"
        }
      ],
      "name": "setUnrestricted",
      "outputs": [],
      "stateMutability": "nonpayable",
      "type": "function"
    },
    {
      "inputs": [
        {
          "internalType": "address",
          "name": "newOwner",
          "type": "address"
        }
      ],
      "name": "transferOwnership",
      "outputs": [],
      "stateMutability": "nonpayable",
      "type": "function"
    },
    {
      "inputs": [],
      "name": "unrestricted",
      "outputs": [
        {
          "internalType": "bool",
          "name": "",
          "type": "bool"
        }
      ],
      "stateMutability": "view",
      "type": "function"
    }
  ],
  "transactionHash": "0xbfff50fc0a6def9f10cc97bdab6390b7a708358c00497dcbdceba2ac043fbf29",
  "args": [
    "0xe6a11F125a834E0676F3f8f33eb347D4e1938264",
    "0x96E5b9e7bc0eC533385e18572b9155f9656ad735",
    "0x928ed5a1259b1ce7b7c99ac5f100cf0db16b424e",
    "0x5B06c3600dafdd2B11e0127316BfD8604D31d428",
    "0xC58801771DBaDA5464305fE4806F23e836c48fdD"
  ],
  "numDeployments": 2,
  "solcInputHash": "7794fa4267d03d391ef8b1bf28c03968",
  "bytecode": "0x610100604052600080546001600160a01b0319163317905534801561002357600080fd5b50604051610fbe380380610fbe833981810160405260a081101561004657600080fd5b5080516020820151604083015160608085015160809586015185831b6001600160601b0319908116909752600480546001600160a01b0319166001600160a01b0396871617905583831b871660a05281831b871660c0529182901b90951660e05292821693908216929082169116610ed76100e7600039806106bb52508061060952508061055752508061052852806105da528061068c5250610ed76000f3fe608060405234801561001057600080fd5b50600436106100f55760003560e01c80638da5cb5b11610097578063b17fb9d611610066578063b17fb9d614610280578063ca1123c2146102a6578063da8c229e146102c7578063f2fde38b146102ed576100f5565b80638da5cb5b146101ce57806394a3b4b9146101d657806395c47d06146102045780639c8c247c14610252576100f5565b806326278f86116100d357806326278f861461017b5780634e71e0c8146101835780636052970c1461018b5780638327eb87146101af576100f5565b8063127043c3146100fa57806316114acd146101195780631dbb8db314610141575b600080fd5b610102610313565b6040805161ffff9092168252519081900360200190f35b61013f6004803603602081101561012f57600080fd5b50356001600160a01b0316610324565b005b6101676004803603602081101561015757600080fd5b50356001600160a01b0316610413565b604080519115158252519081900360200190f35b610167610428565b61013f610438565b6101936104ab565b604080516001600160a01b039092168252519081900360200190f35b61013f600480360360208110156101c557600080fd5b503515156104ba565b61019361075b565b61013f600480360360408110156101ec57600080fd5b506001600160a01b038135169060200135151561076a565b6102406004803603608081101561021a57600080fd5b506001600160a01b038135811691602081013582169160408201351690606001356107e1565b60408051918252519081900360200190f35b61013f6004803603604081101561026857600080fd5b506001600160a01b0381351690602001351515610864565b61013f6004803603602081101561029657600080fd5b50356001600160a01b03166108f2565b61013f600480360360208110156102bc57600080fd5b503561ffff16610960565b610167600480360360208110156102dd57600080fd5b50356001600160a01b0316610a40565b61013f6004803603602081101561030357600080fd5b50356001600160a01b0316610a55565b600454600160a01b900461ffff1681565b6000546001600160a01b03163314610370576040805162461bcd60e51b815260206004820152600a6024820152694f776e6572206f6e6c7960b01b604482015290519081900360640190fd5b61037981610ac3565b61038257600080fd5b61041033826001600160a01b03166370a08231306040518263ffffffff1660e01b815260040180826001600160a01b0316815260200191505060206040518083038186803b1580156103d357600080fd5b505afa1580156103e7573d6000803e3d6000fd5b505050506040513d60208110156103fd57600080fd5b50516001600160a01b0384169190610ad5565b50565b60036020526000908152604090205460ff1681565b600154600160a01b900460ff1681565b6001546001600160a01b0316331461044f57600080fd5b600180546001600160a01b03191690556000805460405133926001600160a01b03909216917f8be0079c531659141344cd1fd0a4f28419497f9722a3daafe3b4186f6b6457e091a3600080546001600160a01b03191633179055565b6004546001600160a01b031681565b3360009081526002602052604090205460ff16806104e257506000546001600160a01b031633145b610526576040805162461bcd60e51b815260206004820152601060248201526f2737ba10309031b7b73a3937b63632b960811b604482015290519081900360640190fd5b7f00000000000000000000000000000000000000000000000000000000000000006001600160a01b031663449113f27f000000000000000000000000000000000000000000000000000000000000000083156040518363ffffffff1660e01b815260040180836001600160a01b03168152602001821515815260200192505050600060405180830381600087803b1580156105c057600080fd5b505af11580156105d4573d6000803e3d6000fd5b505050507f00000000000000000000000000000000000000000000000000000000000000006001600160a01b031663449113f27f000000000000000000000000000000000000000000000000000000000000000083156040518363ffffffff1660e01b815260040180836001600160a01b03168152602001821515815260200192505050600060405180830381600087803b15801561067257600080fd5b505af1158015610686573d6000803e3d6000fd5b505050507f00000000000000000000000000000000000000000000000000000000000000006001600160a01b031663449113f27f000000000000000000000000000000000000000000000000000000000000000083156040518363ffffffff1660e01b815260040180836001600160a01b03168152602001821515815260200192505050600060405180830381600087803b15801561072457600080fd5b505af1158015610738573d6000803e3d6000fd5b505060018054931515600160a01b0260ff60a01b19909416939093179092555050565b6000546001600160a01b031681565b6000546001600160a01b031633146107b6576040805162461bcd60e51b815260206004820152600a6024820152694f776e6572206f6e6c7960b01b604482015290519081900360640190fd5b6001600160a01b03919091166000908152600260205260409020805460ff1916911515919091179055565b600154600090600160a01b900460ff168061081457506001600160a01b03841660009081526003602052604090205460ff165b8061083757506001600160a01b03831660009081526003602052604090205460ff165b156108445750600061085c565b60045461271090600160a01b900461ffff1683020490505b949350505050565b6000546001600160a01b031633148061088c57503360009081526002602052604090205460ff165b6108c75760405162461bcd60e51b815260040180806020018281038252602b815260200180610e77602b913960400191505060405180910390fd5b6001600160a01b03919091166000908152600360205260409020805460ff1916911515919091179055565b6000546001600160a01b0316331461093e576040805162461bcd60e51b815260206004820152600a6024820152694f776e6572206f6e6c7960b01b604482015290519081900360640190fd5b600480546001600160a01b0319166001600160a01b0392909216919091179055565b3360009081526002602052604090205460ff168061098857506000546001600160a01b031633145b6109d9576040805162461bcd60e51b815260206004820152601a60248201527f4e6f7420616e206f776e6572206f7220636f6e74726f6c6c6572000000000000604482015290519081900360640190fd5b6127108161ffff161115610a1e5760405162461bcd60e51b815260040180806020018281038252602b815260200180610dfc602b913960400191505060405180910390fd5b6004805461ffff909216600160a01b0261ffff60a01b19909216919091179055565b60026020526000908152604090205460ff1681565b6000546001600160a01b03163314610aa1576040805162461bcd60e51b815260206004820152600a6024820152694f776e6572206f6e6c7960b01b604482015290519081900360640190fd5b600180546001600160a01b0319166001600160a01b0392909216919091179055565b6001600160a01b038116301415919050565b604080516001600160a01b038416602482015260448082018490528251808303909101815260649091019091526020810180516001600160e01b031663a9059cbb60e01b179052610b27908490610b2c565b505050565b6000610b81826040518060400160405280602081526020017f5361666545524332303a206c6f772d6c6576656c2063616c6c206661696c6564815250856001600160a01b0316610bdd9092919063ffffffff16565b805190915015610b2757808060200190516020811015610ba057600080fd5b5051610b275760405162461bcd60e51b815260040180806020018281038252602a815260200180610e4d602a913960400191505060405180910390fd5b6060610bec8484600085610bf6565b90505b9392505050565b606082471015610c375760405162461bcd60e51b8152600401808060200182810382526026815260200180610e276026913960400191505060405180910390fd5b610c4085610d51565b610c91576040805162461bcd60e51b815260206004820152601d60248201527f416464726573733a2063616c6c20746f206e6f6e2d636f6e7472616374000000604482015290519081900360640190fd5b600080866001600160a01b031685876040518082805190602001908083835b60208310610ccf5780518252601f199092019160209182019101610cb0565b6001836020036101000a03801982511681845116808217855250505050505090500191505060006040518083038185875af1925050503d8060008114610d31576040519150601f19603f3d011682016040523d82523d6000602084013e610d36565b606091505b5091509150610d46828286610d57565b979650505050505050565b3b151590565b60608315610d66575081610bef565b825115610d765782518084602001fd5b8160405162461bcd60e51b81526004018080602001828103825283818151815260200191508051906020019080838360005b83811015610dc0578181015183820152602001610da8565b50505050905090810190601f168015610ded5780820380516001836020036101000a031916815260200191505b509250505060405180910390fdfe4665652072617465206d757374206265206c657373207468616e206f7220657175616c20746f2031303025416464726573733a20696e73756666696369656e742062616c616e636520666f722063616c6c5361666545524332303a204552433230206f7065726174696f6e20646964206e6f7420737563636565644e6f7420616e206f776e6572206f722066726565207061727469636970616e7420636f6e74726f6c6c6572a26469706673582212202c6c0f69fae1aa79d8f6f7e8da13d1b524b2233818e54c8e39dbf151f91785d164736f6c63430007060033",
  "devdoc": {
    "kind": "dev",
    "methods": {},
    "version": 1
  },
  "userdoc": {
    "kind": "user",
    "methods": {},
    "version": 1
  },
  "storageLayout": {
    "storage": [
      {
        "astId": 7200,
        "contract": "contracts/RootedTransferGateV2.sol:RootedTransferGateV2",
        "label": "owner",
        "offset": 0,
        "slot": "0",
        "type": "t_address"
      },
      {
        "astId": 7202,
        "contract": "contracts/RootedTransferGateV2.sol:RootedTransferGateV2",
        "label": "pendingOwner",
        "offset": 0,
        "slot": "1",
        "type": "t_address"
      },
      {
        "astId": 7773,
        "contract": "contracts/RootedTransferGateV2.sol:RootedTransferGateV2",
        "label": "unrestricted",
        "offset": 20,
        "slot": "1",
        "type": "t_bool"
      },
      {
        "astId": 7777,
        "contract": "contracts/RootedTransferGateV2.sol:RootedTransferGateV2",
        "label": "controllers",
        "offset": 0,
        "slot": "2",
        "type": "t_mapping(t_address,t_bool)"
      },
      {
        "astId": 7781,
        "contract": "contracts/RootedTransferGateV2.sol:RootedTransferGateV2",
        "label": "freeParticipants",
        "offset": 0,
        "slot": "3",
        "type": "t_mapping(t_address,t_bool)"
      },
      {
        "astId": 7784,
        "contract": "contracts/RootedTransferGateV2.sol:RootedTransferGateV2",
        "label": "feeSplitter",
        "offset": 0,
        "slot": "4",
        "type": "t_address"
      },
      {
        "astId": 7786,
        "contract": "contracts/RootedTransferGateV2.sol:RootedTransferGateV2",
        "label": "feesRate",
        "offset": 20,
        "slot": "4",
        "type": "t_uint16"
      }
    ],
    "types": {
      "t_address": {
        "encoding": "inplace",
        "label": "address",
        "numberOfBytes": "20"
      },
      "t_bool": {
        "encoding": "inplace",
        "label": "bool",
        "numberOfBytes": "1"
      },
      "t_mapping(t_address,t_bool)": {
        "encoding": "mapping",
        "key": "t_address",
        "label": "mapping(address => bool)",
        "numberOfBytes": "32",
        "value": "t_bool"
      },
      "t_uint16": {
        "encoding": "inplace",
        "label": "uint16",
        "numberOfBytes": "2"
      }
    }
  }
}