{
  "address": "0xac722f14Fcf4dac86DEA47a7b80daE72d456CB05",
  "abi": [
    {
      "inputs": [
        {
          "internalType": "contract IERC20",
          "name": "_rooted",
          "type": "address"
        },
        {
          "internalType": "contract RootedTransferGate",
          "name": "_gate",
          "type": "address"
        },
        {
          "internalType": "contract IUniswapV2Router02",
          "name": "_uniswapRouter",
          "type": "address"
        }
      ],
      "stateMutability": "nonpayable",
      "type": "constructor"
    },
    {
      "anonymous": false,
      "inputs": [
        {
          "indexed": true,
          "internalType": "address",
          "name": "previousOwner",
          "type": "address"
        },
        {
          "indexed": true,
          "internalType": "address",
          "name": "newOwner",
          "type": "address"
        }
      ],
      "name": "OwnershipTransferred",
      "type": "event"
    },
    {
      "inputs": [
        {
          "internalType": "uint256",
          "name": "amount",
          "type": "uint256"
        },
        {
          "internalType": "uint256",
          "name": "minAmountOut",
          "type": "uint256"
        },
        {
          "internalType": "address",
          "name": "pairedToken",
          "type": "address"
        },
        {
          "internalType": "address",
          "name": "pair",
          "type": "address"
        }
      ],
      "name": "addSingleSideLiquidity",
      "outputs": [],
      "stateMutability": "nonpayable",
      "type": "function"
    },
    {
      "inputs": [],
      "name": "claimOwnership",
      "outputs": [],
      "stateMutability": "nonpayable",
      "type": "function"
    },
    {
      "inputs": [],
      "name": "owner",
      "outputs": [
        {
          "internalType": "address",
          "name": "",
          "type": "address"
        }
      ],
      "stateMutability": "view",
      "type": "function"
    },
    {
      "inputs": [
        {
          "internalType": "contract IERC20",
          "name": "token",
          "type": "address"
        }
      ],
      "name": "recoverTokens",
      "outputs": [],
      "stateMutability": "nonpayable",
      "type": "function"
    },
    {
      "inputs": [
        {
          "internalType": "address",
          "name": "_controller",
          "type": "address"
        },
        {
          "internalType": "bool",
          "name": "_canControl",
          "type": "bool"
        }
      ],
      "name": "setController",
      "outputs": [],
      "stateMutability": "nonpayable",
      "type": "function"
    },
    {
      "inputs": [
        {
          "internalType": "address",
          "name": "newOwner",
          "type": "address"
        }
      ],
      "name": "transferOwnership",
      "outputs": [],
      "stateMutability": "nonpayable",
      "type": "function"
    },
    {
      "inputs": [
        {
          "internalType": "contract RootedTransferGate",
          "name": "_gate",
          "type": "address"
        }
      ],
      "name": "updateGate",
      "outputs": [],
      "stateMutability": "nonpayable",
      "type": "function"
    }
  ],
  "transactionHash": "0x344bee54ba0295481f8d105f7a95c0bd4e0d6ae29d52c96c0b016d4b929f5462",
  "args": [
    "0xe6a11F125a834E0676F3f8f33eb347D4e1938264",
    "0x155C027cAA72235F6d1429D1ee2C8Ce99187394c",
    "0xa5E0829CaCEd8fFDD4De3c43696c57F7D7A678ff"
  ],
  "numDeployments": 1,
  "solcInputHash": "7794fa4267d03d391ef8b1bf28c03968",
  "bytecode": "0x60c0604052600080546001600160a01b0319163317905534801561002257600080fd5b50604051610d90380380610d908339818101604052606081101561004557600080fd5b508051602080830151604093840151606084811b6001600160601b031990811660a052600280546001600160a01b0319166001600160a01b03808716919091179091559183901b16608052855163095ea7b360e01b81528183166004820152600019602482015295519495929491939086169263095ea7b392604480830193928290030181600087803b1580156100db57600080fd5b505af11580156100ef573d6000803e3d6000fd5b505050506040513d602081101561010557600080fd5b505050505060805160601c60a05160601c610c586101386000398061034652806104bb5250806105375250610c586000f3fe608060405234801561001057600080fd5b506004361061007d5760003560e01c80638da5cb5b1161005b5780638da5cb5b146100ec578063cd8eebcc14610110578063e0dba60f14610136578063f2fde38b146101645761007d565b806316114acd146100825780634e71e0c8146100aa57806358a150fb146100b2575b600080fd5b6100a86004803603602081101561009857600080fd5b50356001600160a01b031661018a565b005b6100a8610279565b6100a8600480360360808110156100c857600080fd5b508035906020810135906001600160a01b03604082013581169160600135166102ec565b6100f4610738565b604080516001600160a01b039092168252519081900360200190f35b6100a86004803603602081101561012657600080fd5b50356001600160a01b0316610747565b6100a86004803603604081101561014c57600080fd5b506001600160a01b03813516906020013515156107b5565b6100a86004803603602081101561017a57600080fd5b50356001600160a01b031661082c565b6000546001600160a01b031633146101d6576040805162461bcd60e51b815260206004820152600a6024820152694f776e6572206f6e6c7960b01b604482015290519081900360640190fd5b6101df8161089a565b6101e857600080fd5b61027633826001600160a01b03166370a08231306040518263ffffffff1660e01b815260040180826001600160a01b0316815260200191505060206040518083038186803b15801561023957600080fd5b505afa15801561024d573d6000803e3d6000fd5b505050506040513d602081101561026357600080fd5b50516001600160a01b03841691906108ac565b50565b6001546001600160a01b0316331461029057600080fd5b600180546001600160a01b03191690556000805460405133926001600160a01b03909216917f8be0079c531659141344cd1fd0a4f28419497f9722a3daafe3b4186f6b6457e091a3600080546001600160a01b03191633179055565b3360009081526003602052604090205460ff16610343576040805162461bcd60e51b815260206004820152601060248201526f2737ba10309021b7b73a3937b63632b960811b604482015290519081900360640190fd5b837f00000000000000000000000000000000000000000000000000000000000000006001600160a01b03166370a08231306040518263ffffffff1660e01b815260040180826001600160a01b0316815260200191505060206040518083038186803b1580156103b157600080fd5b505afa1580156103c5573d6000803e3d6000fd5b505050506040513d60208110156103db57600080fd5b50511015610430576040805162461bcd60e51b815260206004820152601a60248201527f4e6f7420656e6f756768207570546f6b656e2042616c616e6365000000000000604482015290519081900360640190fd5b60025460408051638327eb8760e01b81526001600482015290516001600160a01b0390921691638327eb879160248082019260009290919082900301818387803b15801561047d57600080fd5b505af1158015610491573d6000803e3d6000fd5b505060408051600280825260608201835260009450909250906020830190803683370190505090507f0000000000000000000000000000000000000000000000000000000000000000816000815181106104e757fe5b60200260200101906001600160a01b031690816001600160a01b031681525050828160018151811061051557fe5b60200260200101906001600160a01b031690816001600160a01b0316815250507f00000000000000000000000000000000000000000000000000000000000000006001600160a01b03166338ed173986868486426040518663ffffffff1660e01b81526004018086815260200185815260200180602001846001600160a01b03168152602001838152602001828103825285818151815260200191508051906020019060200280838360005b838110156105d95781810151838201526020016105c1565b505050509050019650505050505050600060405180830381600087803b15801561060257600080fd5b505af1158015610616573d6000803e3d6000fd5b505050506040513d6000823e601f3d908101601f19168201604052602081101561063f57600080fd5b810190808051604051939291908464010000000082111561065f57600080fd5b90830190602082018581111561067457600080fd5b825186602082028301116401000000008211171561069157600080fd5b82525081516020918201928201910280838360005b838110156106be5781810151838201526020016106a6565b50505050919091016040818152600254638327eb8760e01b835260006004840181905291516001600160a01b039091169750638327eb8796506024808401965091945092509082900301818387803b15801561071957600080fd5b505af115801561072d573d6000803e3d6000fd5b505050505050505050565b6000546001600160a01b031681565b6000546001600160a01b03163314610793576040805162461bcd60e51b815260206004820152600a6024820152694f776e6572206f6e6c7960b01b604482015290519081900360640190fd5b600280546001600160a01b0319166001600160a01b0392909216919091179055565b6000546001600160a01b03163314610801576040805162461bcd60e51b815260206004820152600a6024820152694f776e6572206f6e6c7960b01b604482015290519081900360640190fd5b6001600160a01b03919091166000908152600360205260409020805460ff1916911515919091179055565b6000546001600160a01b03163314610878576040805162461bcd60e51b815260206004820152600a6024820152694f776e6572206f6e6c7960b01b604482015290519081900360640190fd5b600180546001600160a01b0319166001600160a01b0392909216919091179055565b6001600160a01b038116301415919050565b604080516001600160a01b038416602482015260448082018490528251808303909101815260649091019091526020810180516001600160e01b031663a9059cbb60e01b1790526108fe908490610903565b505050565b6000610958826040518060400160405280602081526020017f5361666545524332303a206c6f772d6c6576656c2063616c6c206661696c6564815250856001600160a01b03166109b49092919063ffffffff16565b8051909150156108fe5780806020019051602081101561097757600080fd5b50516108fe5760405162461bcd60e51b815260040180806020018281038252602a815260200180610bf9602a913960400191505060405180910390fd5b60606109c384846000856109cd565b90505b9392505050565b606082471015610a0e5760405162461bcd60e51b8152600401808060200182810382526026815260200180610bd36026913960400191505060405180910390fd5b610a1785610b28565b610a68576040805162461bcd60e51b815260206004820152601d60248201527f416464726573733a2063616c6c20746f206e6f6e2d636f6e7472616374000000604482015290519081900360640190fd5b600080866001600160a01b031685876040518082805190602001908083835b60208310610aa65780518252601f199092019160209182019101610a87565b6001836020036101000a03801982511681845116808217855250505050505090500191505060006040518083038185875af1925050503d8060008114610b08576040519150601f19603f3d011682016040523d82523d6000602084013e610b0d565b606091505b5091509150610b1d828286610b2e565b979650505050505050565b3b151590565b60608315610b3d5750816109c6565b825115610b4d5782518084602001fd5b8160405162461bcd60e51b81526004018080602001828103825283818151815260200191508051906020019080838360005b83811015610b97578181015183820152602001610b7f565b50505050905090810190601f168015610bc45780820380516001836020036101000a031916815260200191505b509250505060405180910390fdfe416464726573733a20696e73756666696369656e742062616c616e636520666f722063616c6c5361666545524332303a204552433230206f7065726174696f6e20646964206e6f742073756363656564a2646970667358221220639b5eb02b9539372c5bd9f9afd6d1c87567adb2e3c976394ed9d3c4c1d61fe264736f6c63430007060033",
  "devdoc": {
    "kind": "dev",
    "methods": {},
    "version": 1
  },
  "userdoc": {
    "kind": "user",
    "methods": {},
    "version": 1
  },
  "storageLayout": {
    "storage": [
      {
        "astId": 7200,
        "contract": "contracts/SingleSideLiquidityAdder.sol:SingleSideLiquidityAdder",
        "label": "owner",
        "offset": 0,
        "slot": "0",
        "type": "t_address"
      },
      {
        "astId": 7202,
        "contract": "contracts/SingleSideLiquidityAdder.sol:SingleSideLiquidityAdder",
        "label": "pendingOwner",
        "offset": 0,
        "slot": "1",
        "type": "t_address"
      },
      {
        "astId": 8304,
        "contract": "contracts/SingleSideLiquidityAdder.sol:SingleSideLiquidityAdder",
        "label": "gate",
        "offset": 0,
        "slot": "2",
        "type": "t_contract(RootedTransferGate)7741"
      },
      {
        "astId": 8310,
        "contract": "contracts/SingleSideLiquidityAdder.sol:SingleSideLiquidityAdder",
        "label": "controllers",
        "offset": 0,
        "slot": "3",
        "type": "t_mapping(t_address,t_bool)"
      }
    ],
    "types": {
      "t_address": {
        "encoding": "inplace",
        "label": "address",
        "numberOfBytes": "20"
      },
      "t_bool": {
        "encoding": "inplace",
        "label": "bool",
        "numberOfBytes": "1"
      },
      "t_contract(RootedTransferGate)7741": {
        "encoding": "inplace",
        "label": "contract RootedTransferGate",
        "numberOfBytes": "20"
      },
      "t_mapping(t_address,t_bool)": {
        "encoding": "mapping",
        "key": "t_address",
        "label": "mapping(address => bool)",
        "numberOfBytes": "32",
        "value": "t_bool"
      }
    }
  }
}